{
  "contractName": "Mall",
  "abi": [
    {
      "inputs": [],
      "payable": false,
      "stateMutability": "nonpayable",
      "type": "constructor"
    },
    {
      "constant": true,
      "inputs": [
        {
          "internalType": "uint256",
          "name": "",
          "type": "uint256"
        }
      ],
      "name": "VehicleInsurance",
      "outputs": [
        {
          "internalType": "string",
          "name": "registrationNumber",
          "type": "string"
        },
        {
          "internalType": "string",
          "name": "registrationDate",
          "type": "string"
        },
        {
          "internalType": "bool",
          "name": "status",
          "type": "bool"
        },
        {
          "internalType": "uint256",
          "name": "referenceNumber",
          "type": "uint256"
        },
        {
          "internalType": "uint256",
          "name": "id",
          "type": "uint256"
        },
        {
          "internalType": "bool",
          "name": "active",
          "type": "bool"
        },
        {
          "internalType": "address",
          "name": "customer",
          "type": "address"
        },
        {
          "internalType": "address payable",
          "name": "partner",
          "type": "address"
        },
        {
          "internalType": "uint256",
          "name": "price",
          "type": "uint256"
        },
        {
          "internalType": "bool",
          "name": "paid",
          "type": "bool"
        }
      ],
      "payable": false,
      "stateMutability": "view",
      "type": "function"
    },
    {
      "constant": true,
      "inputs": [
        {
          "internalType": "address",
          "name": "",
          "type": "address"
        }
      ],
      "name": "credentials",
      "outputs": [
        {
          "internalType": "uint256",
          "name": "id",
          "type": "uint256"
        },
        {
          "internalType": "string",
          "name": "password",
          "type": "string"
        },
        {
          "internalType": "string",
          "name": "field",
          "type": "string"
        },
        {
          "internalType": "bool",
          "name": "active",
          "type": "bool"
        },
        {
          "internalType": "bool",
          "name": "registered",
          "type": "bool"
        }
      ],
      "payable": false,
      "stateMutability": "view",
      "type": "function"
    },
    {
      "constant": true,
      "inputs": [
        {
          "internalType": "address",
          "name": "",
          "type": "address"
        }
      ],
      "name": "dealers",
      "outputs": [
        {
          "internalType": "string",
          "name": "name",
          "type": "string"
        },
        {
          "internalType": "string",
          "name": "licenseNo",
          "type": "string"
        },
        {
          "internalType": "uint256",
          "name": "positiveFeedback",
          "type": "uint256"
        },
        {
          "internalType": "uint256",
          "name": "negativeFeedback",
          "type": "uint256"
        },
        {
          "internalType": "bool",
          "name": "active",
          "type": "bool"
        }
      ],
      "payable": false,
      "stateMutability": "view",
      "type": "function"
    },
    {
      "constant": true,
      "inputs": [
        {
          "internalType": "uint256",
          "name": "",
          "type": "uint256"
        }
      ],
      "name": "deals",
      "outputs": [
        {
          "internalType": "string",
          "name": "likes",
          "type": "string"
        },
        {
          "internalType": "string",
          "name": "availability",
          "type": "string"
        },
        {
          "internalType": "uint256",
          "name": "numberOfPeople",
          "type": "uint256"
        },
        {
          "internalType": "uint256",
          "name": "budget",
          "type": "uint256"
        },
        {
          "internalType": "uint256",
          "name": "id",
          "type": "uint256"
        },
        {
          "internalType": "address",
          "name": "customer",
          "type": "address"
        },
        {
          "internalType": "address payable",
          "name": "seller",
          "type": "address"
        },
        {
          "internalType": "bool",
          "name": "status",
          "type": "bool"
        },
        {
          "internalType": "uint256",
          "name": "referenceNumber",
          "type": "uint256"
        },
        {
          "internalType": "uint256",
          "name": "price",
          "type": "uint256"
        },
        {
          "internalType": "bool",
          "name": "paid",
          "type": "bool"
        },
        {
          "internalType": "bool",
          "name": "active",
          "type": "bool"
        }
      ],
      "payable": false,
      "stateMutability": "view",
      "type": "function"
    },
    {
      "constant": true,
      "inputs": [
        {
          "internalType": "uint256",
          "name": "",
          "type": "uint256"
        }
      ],
      "name": "groceries",
      "outputs": [
        {
          "internalType": "string",
          "name": "list",
          "type": "string"
        },
        {
          "internalType": "string",
          "name": "Address",
          "type": "string"
        },
        {
          "internalType": "string",
          "name": "date",
          "type": "string"
        },
        {
          "internalType": "uint256",
          "name": "id",
          "type": "uint256"
        },
        {
          "internalType": "address",
          "name": "customer",
          "type": "address"
        },
        {
          "internalType": "address payable",
          "name": "partner",
          "type": "address"
        },
        {
          "internalType": "bool",
          "name": "status",
          "type": "bool"
        },
        {
          "internalType": "uint256",
          "name": "ref",
          "type": "uint256"
        },
        {
          "internalType": "bool",
          "name": "paid",
          "type": "bool"
        },
        {
          "internalType": "bool",
          "name": "active",
          "type": "bool"
        },
        {
          "internalType": "uint256",
          "name": "price",
          "type": "uint256"
        }
      ],
      "payable": false,
      "stateMutability": "view",
      "type": "function"
    },
    {
      "constant": true,
      "inputs": [
        {
          "internalType": "address",
          "name": "",
          "type": "address"
        }
      ],
      "name": "grocersList",
      "outputs": [
        {
          "internalType": "string",
          "name": "name",
          "type": "string"
        },
        {
          "internalType": "string",
          "name": "licenseNo",
          "type": "string"
        },
        {
          "internalType": "uint256",
          "name": "positiveFeedback",
          "type": "uint256"
        },
        {
          "internalType": "uint256",
          "name": "negativeFeedback",
          "type": "uint256"
        },
        {
          "internalType": "bool",
          "name": "active",
          "type": "bool"
        }
      ],
      "payable": false,
      "stateMutability": "view",
      "type": "function"
    },
    {
      "constant": true,
      "inputs": [
        {
          "internalType": "uint256",
          "name": "",
          "type": "uint256"
        }
      ],
      "name": "healthInsurance",
      "outputs": [
        {
          "internalType": "string",
          "name": "name",
          "type": "string"
        },
        {
          "internalType": "uint256",
          "name": "age",
          "type": "uint256"
        },
        {
          "internalType": "string",
          "name": "history",
          "type": "string"
        },
        {
          "internalType": "uint256",
          "name": "budget",
          "type": "uint256"
        },
        {
          "internalType": "bool",
          "name": "status",
          "type": "bool"
        },
        {
          "internalType": "uint256",
          "name": "referenceNumber",
          "type": "uint256"
        },
        {
          "internalType": "uint256",
          "name": "id",
          "type": "uint256"
        },
        {
          "internalType": "bool",
          "name": "active",
          "type": "bool"
        },
        {
          "internalType": "address",
          "name": "customer",
          "type": "address"
        },
        {
          "internalType": "address payable",
          "name": "partner",
          "type": "address"
        },
        {
          "internalType": "uint256",
          "name": "price",
          "type": "uint256"
        },
        {
          "internalType": "bool",
          "name": "paid",
          "type": "bool"
        }
      ],
      "payable": false,
      "stateMutability": "view",
      "type": "function"
    },
    {
      "constant": true,
      "inputs": [
        {
          "internalType": "address",
          "name": "",
          "type": "address"
        }
      ],
      "name": "healthInsurers",
      "outputs": [
        {
          "internalType": "string",
          "name": "name",
          "type": "string"
        },
        {
          "internalType": "string",
          "name": "licenseNo",
          "type": "string"
        },
        {
          "internalType": "uint256",
          "name": "positiveFeedback",
          "type": "uint256"
        },
        {
          "internalType": "uint256",
          "name": "negativeFeedback",
          "type": "uint256"
        },
        {
          "internalType": "bool",
          "name": "active",
          "type": "bool"
        }
      ],
      "payable": false,
      "stateMutability": "view",
      "type": "function"
    },
    {
      "constant": true,
      "inputs": [
        {
          "internalType": "address",
          "name": "",
          "type": "address"
        }
      ],
      "name": "vehicleInsurers",
      "outputs": [
        {
          "internalType": "string",
          "name": "name",
          "type": "string"
        },
        {
          "internalType": "string",
          "name": "licenseNo",
          "type": "string"
        },
        {
          "internalType": "uint256",
          "name": "positiveFeedback",
          "type": "uint256"
        },
        {
          "internalType": "uint256",
          "name": "negativeFeedback",
          "type": "uint256"
        },
        {
          "internalType": "bool",
          "name": "active",
          "type": "bool"
        }
      ],
      "payable": false,
      "stateMutability": "view",
      "type": "function"
    },
    {
      "constant": false,
      "inputs": [
        {
          "internalType": "string",
          "name": "password",
          "type": "string"
        },
        {
          "internalType": "string",
          "name": "field",
          "type": "string"
        }
      ],
      "name": "register",
      "outputs": [],
      "payable": false,
      "stateMutability": "nonpayable",
      "type": "function"
    },
    {
      "constant": false,
      "inputs": [
        {
          "internalType": "string",
          "name": "licenseNo",
          "type": "string"
        },
        {
          "internalType": "string",
          "name": "name",
          "type": "string"
        }
      ],
      "name": "registerGrocer",
      "outputs": [],
      "payable": false,
      "stateMutability": "nonpayable",
      "type": "function"
    },
    {
      "constant": false,
      "inputs": [
        {
          "internalType": "string",
          "name": "licenseNo",
          "type": "string"
        },
        {
          "internalType": "string",
          "name": "name",
          "type": "string"
        }
      ],
      "name": "registerHealthInsurer",
      "outputs": [],
      "payable": false,
      "stateMutability": "nonpayable",
      "type": "function"
    },
    {
      "constant": false,
      "inputs": [
        {
          "internalType": "string",
          "name": "licenseNo",
          "type": "string"
        },
        {
          "internalType": "string",
          "name": "name",
          "type": "string"
        }
      ],
      "name": "registerVehicleInsurer",
      "outputs": [],
      "payable": false,
      "stateMutability": "nonpayable",
      "type": "function"
    },
    {
      "constant": false,
      "inputs": [
        {
          "internalType": "string",
          "name": "licenseNo",
          "type": "string"
        },
        {
          "internalType": "string",
          "name": "name",
          "type": "string"
        }
      ],
      "name": "companyRegister",
      "outputs": [],
      "payable": false,
      "stateMutability": "nonpayable",
      "type": "function"
    },
    {
      "constant": false,
      "inputs": [
        {
          "internalType": "string",
          "name": "list",
          "type": "string"
        },
        {
          "internalType": "string",
          "name": "Address",
          "type": "string"
        },
        {
          "internalType": "string",
          "name": "date",
          "type": "string"
        }
      ],
      "name": "orderGrocery",
      "outputs": [],
      "payable": false,
      "stateMutability": "nonpayable",
      "type": "function"
    },
    {
      "constant": false,
      "inputs": [
        {
          "internalType": "uint256",
          "name": "id",
          "type": "uint256"
        },
        {
          "internalType": "uint256",
          "name": "referenceNumber",
          "type": "uint256"
        },
        {
          "internalType": "uint256",
          "name": "price",
          "type": "uint256"
        }
      ],
      "name": "packGrocery",
      "outputs": [],
      "payable": false,
      "stateMutability": "nonpayable",
      "type": "function"
    },
    {
      "constant": false,
      "inputs": [
        {
          "internalType": "uint256",
          "name": "id",
          "type": "uint256"
        },
        {
          "internalType": "uint256",
          "name": "referenceNumber",
          "type": "uint256"
        }
      ],
      "name": "payGrocer",
      "outputs": [],
      "payable": true,
      "stateMutability": "payable",
      "type": "function"
    },
    {
      "constant": true,
      "inputs": [
        {
          "internalType": "uint256",
          "name": "id",
          "type": "uint256"
        }
      ],
      "name": "viewGroceryRef",
      "outputs": [
        {
          "internalType": "uint256",
          "name": "",
          "type": "uint256"
        },
        {
          "internalType": "uint256",
          "name": "",
          "type": "uint256"
        }
      ],
      "payable": false,
      "stateMutability": "view",
      "type": "function"
    },
    {
      "constant": false,
      "inputs": [
        {
          "internalType": "string",
          "name": "registrationNumber",
          "type": "string"
        },
        {
          "internalType": "string",
          "name": "registrationDate",
          "type": "string"
        }
      ],
      "name": "requireVehicleInsurance",
      "outputs": [],
      "payable": false,
      "stateMutability": "nonpayable",
      "type": "function"
    },
    {
      "constant": false,
      "inputs": [
        {
          "internalType": "uint256",
          "name": "referenceNumber",
          "type": "uint256"
        },
        {
          "internalType": "uint256",
          "name": "id",
          "type": "uint256"
        },
        {
          "internalType": "uint256",
          "name": "price",
          "type": "uint256"
        }
      ],
      "name": "insureVehicle",
      "outputs": [],
      "payable": false,
      "stateMutability": "nonpayable",
      "type": "function"
    },
    {
      "constant": false,
      "inputs": [
        {
          "internalType": "uint256",
          "name": "id",
          "type": "uint256"
        },
        {
          "internalType": "uint256",
          "name": "referenceNumber",
          "type": "uint256"
        }
      ],
      "name": "payVehicleInsurace",
      "outputs": [],
      "payable": true,
      "stateMutability": "payable",
      "type": "function"
    },
    {
      "constant": true,
      "inputs": [
        {
          "internalType": "uint256",
          "name": "id",
          "type": "uint256"
        }
      ],
      "name": "viewVehicleRef",
      "outputs": [
        {
          "internalType": "uint256",
          "name": "",
          "type": "uint256"
        },
        {
          "internalType": "uint256",
          "name": "",
          "type": "uint256"
        }
      ],
      "payable": false,
      "stateMutability": "view",
      "type": "function"
    },
    {
      "constant": false,
      "inputs": [
        {
          "internalType": "string",
          "name": "name",
          "type": "string"
        },
        {
          "internalType": "string",
          "name": "history",
          "type": "string"
        },
        {
          "internalType": "uint256",
          "name": "age",
          "type": "uint256"
        },
        {
          "internalType": "uint256",
          "name": "budget",
          "type": "uint256"
        }
      ],
      "name": "requireHealthInsurance",
      "outputs": [],
      "payable": false,
      "stateMutability": "nonpayable",
      "type": "function"
    },
    {
      "constant": false,
      "inputs": [
        {
          "internalType": "uint256",
          "name": "referenceNumber",
          "type": "uint256"
        },
        {
          "internalType": "uint256",
          "name": "id",
          "type": "uint256"
        },
        {
          "internalType": "uint256",
          "name": "price",
          "type": "uint256"
        }
      ],
      "name": "insureHealth",
      "outputs": [],
      "payable": false,
      "stateMutability": "nonpayable",
      "type": "function"
    },
    {
      "constant": false,
      "inputs": [
        {
          "internalType": "uint256",
          "name": "id",
          "type": "uint256"
        },
        {
          "internalType": "uint256",
          "name": "referenceNumber",
          "type": "uint256"
        }
      ],
      "name": "payHealthInsurace",
      "outputs": [],
      "payable": true,
      "stateMutability": "payable",
      "type": "function"
    },
    {
      "constant": true,
      "inputs": [
        {
          "internalType": "uint256",
          "name": "id",
          "type": "uint256"
        }
      ],
      "name": "viewHealthRef",
      "outputs": [
        {
          "internalType": "uint256",
          "name": "",
          "type": "uint256"
        },
        {
          "internalType": "uint256",
          "name": "",
          "type": "uint256"
        }
      ],
      "payable": false,
      "stateMutability": "view",
      "type": "function"
    },
    {
      "constant": false,
      "inputs": [
        {
          "internalType": "string",
          "name": "likes",
          "type": "string"
        },
        {
          "internalType": "string",
          "name": "availability",
          "type": "string"
        },
        {
          "internalType": "uint256",
          "name": "noOfPeople",
          "type": "uint256"
        },
        {
          "internalType": "uint256",
          "name": "budget",
          "type": "uint256"
        }
      ],
      "name": "postDeal",
      "outputs": [],
      "payable": false,
      "stateMutability": "nonpayable",
      "type": "function"
    },
    {
      "constant": false,
      "inputs": [
        {
          "internalType": "uint256",
          "name": "referenceNumber",
          "type": "uint256"
        },
        {
          "internalType": "uint256",
          "name": "id",
          "type": "uint256"
        },
        {
          "internalType": "uint256",
          "name": "price",
          "type": "uint256"
        }
      ],
      "name": "offerDeal",
      "outputs": [],
      "payable": false,
      "stateMutability": "nonpayable",
      "type": "function"
    },
    {
      "constant": false,
      "inputs": [
        {
          "internalType": "uint256",
          "name": "id",
          "type": "uint256"
        },
        {
          "internalType": "uint256",
          "name": "referenceNumber",
          "type": "uint256"
        }
      ],
      "name": "payDeal",
      "outputs": [],
      "payable": true,
      "stateMutability": "payable",
      "type": "function"
    },
    {
      "constant": false,
      "inputs": [
        {
          "internalType": "uint256",
          "name": "id",
          "type": "uint256"
        }
      ],
      "name": "consentGrocery",
      "outputs": [],
      "payable": false,
      "stateMutability": "nonpayable",
      "type": "function"
    },
    {
      "constant": false,
      "inputs": [
        {
          "internalType": "uint256",
          "name": "id",
          "type": "uint256"
        }
      ],
      "name": "consentVehicleInsurance",
      "outputs": [],
      "payable": false,
      "stateMutability": "nonpayable",
      "type": "function"
    },
    {
      "constant": false,
      "inputs": [
        {
          "internalType": "uint256",
          "name": "id",
          "type": "uint256"
        }
      ],
      "name": "consenthealthInsurance",
      "outputs": [],
      "payable": false,
      "stateMutability": "nonpayable",
      "type": "function"
    },
    {
      "constant": false,
      "inputs": [
        {
          "internalType": "uint256",
          "name": "id",
          "type": "uint256"
        }
      ],
      "name": "consentDeals",
      "outputs": [],
      "payable": false,
      "stateMutability": "nonpayable",
      "type": "function"
    }
  ],
  "bytecode": "0x60806040526000600355600060065560006008556000600c5534801561002457600080fd5b50336000806101000a81548173ffffffffffffffffffffffffffffffffffffffff021916908373ffffffffffffffffffffffffffffffffffffffff16021790555060006001819055506150298061007c6000396000f3fe6080604052600436106101ed5760003560e01c80635d2f56741161010d578063bf2cf57d116100a0578063ddf7dad51161006f578063ddf7dad514611c92578063e2099c9114611df1578063f0ede41114611f40578063f62fe1d514611f8f578063f8b2c445146120de576101ed565b8063bf2cf57d14611baf578063d169469114611bea578063d4a9a4ef14611c22578063ddbd034f14611c5a576101ed565b80638f26411d116100dc5780638f26411d146119805780639e4d450b14611acf578063b2cb76fe14611b1e578063b65d42c114611b59576101ed565b80635d2f5674146114895780636016dd4a1461167f578063621f8b6d146117d25780638050851d14611931576101ed565b80632e0c973c11610185578063442bdcbc11610154578063442bdcbc146110e95780634b403c5d146111215780634d730261146112eb57806352b73c1d1461133a576101ed565b80632e0c973c14610b59578063317dcfcd14610cb85780633dc5d00a14610e2b5780633ffbd47f14610f8a576101ed565b8063063a9c2f116101c1578063063a9c2f146107db578063104545b01461094e5780631499a38614610aad5780631a96961914610b03576101ed565b8062ad0591146101f257806302692acd1461022d57806303988f84146103e9578063042d1927146105b3575b600080fd5b3480156101fe57600080fd5b5061022b6004803603602081101561021557600080fd5b8101908080359060200190929190505050612119565b005b34801561023957600080fd5b506102666004803603602081101561025057600080fd5b81019080803590602001909291905050506121b9565b6040518080602001806020018b1515151581526020018a8152602001898152602001881515151581526020018773ffffffffffffffffffffffffffffffffffffffff1673ffffffffffffffffffffffffffffffffffffffff1681526020018673ffffffffffffffffffffffffffffffffffffffff1673ffffffffffffffffffffffffffffffffffffffff1681526020018581526020018415151515815260200183810383528d818151815260200191508051906020019080838360005b8381101561033e578082015181840152602081019050610323565b50505050905090810190601f16801561036b5780820380516001836020036101000a031916815260200191505b5083810382528c818151815260200191508051906020019080838360005b838110156103a4578082015181840152602081019050610389565b50505050905090810190601f1680156103d15780820380516001836020036101000a031916815260200191505b509c5050505050505050505050505060405180910390f35b3480156103f557600080fd5b506104226004803603602081101561040c57600080fd5b81019080803590602001909291905050506123a4565b6040518080602001806020018d81526020018c81526020018b81526020018a73ffffffffffffffffffffffffffffffffffffffff1673ffffffffffffffffffffffffffffffffffffffff1681526020018973ffffffffffffffffffffffffffffffffffffffff1673ffffffffffffffffffffffffffffffffffffffff16815260200188151515158152602001878152602001868152602001851515151581526020018415151515815260200183810383528f818151815260200191508051906020019080838360005b838110156105065780820151818401526020810190506104eb565b50505050905090810190601f1680156105335780820380516001836020036101000a031916815260200191505b5083810382528e818151815260200191508051906020019080838360005b8381101561056c578082015181840152602081019050610551565b50505050905090810190601f1680156105995780820380516001836020036101000a031916815260200191505b509e50505050505050505050505050505060405180910390f35b3480156105bf57600080fd5b506105ec600480360360208110156105d657600080fd5b810190808035906020019092919050505061259b565b604051808060200180602001806020018c81526020018b73ffffffffffffffffffffffffffffffffffffffff1673ffffffffffffffffffffffffffffffffffffffff1681526020018a73ffffffffffffffffffffffffffffffffffffffff1673ffffffffffffffffffffffffffffffffffffffff16815260200189151515158152602001888152602001871515151581526020018615151515815260200185815260200184810384528f818151815260200191508051906020019080838360005b838110156106c85780820151818401526020810190506106ad565b50505050905090810190601f1680156106f55780820380516001836020036101000a031916815260200191505b5084810383528e818151815260200191508051906020019080838360005b8381101561072e578082015181840152602081019050610713565b50505050905090810190601f16801561075b5780820380516001836020036101000a031916815260200191505b5084810382528d818151815260200191508051906020019080838360005b83811015610794578082015181840152602081019050610779565b50505050905090810190601f1680156107c15780820380516001836020036101000a031916815260200191505b509e50505050505050505050505050505060405180910390f35b3480156107e757600080fd5b5061094c600480360360808110156107fe57600080fd5b810190808035906020019064010000000081111561081b57600080fd5b82018360208201111561082d57600080fd5b8035906020019184600183028401116401000000008311171561084f57600080fd5b91908080601f016020809104026020016040519081016040528093929190818152602001838380828437600081840152601f19601f820116905080830192505050505050509192919290803590602001906401000000008111156108b257600080fd5b8201836020820111156108c457600080fd5b803590602001918460018302840111640100000000831117156108e657600080fd5b91908080601f016020809104026020016040519081016040528093929190818152602001838380828437600081840152601f19601f8201169050808301925050505050505091929192908035906020019092919080359060200190929190505050612824565b005b34801561095a57600080fd5b50610aab6004803603604081101561097157600080fd5b810190808035906020019064010000000081111561098e57600080fd5b8201836020820111156109a057600080fd5b803590602001918460018302840111640100000000831117156109c257600080fd5b91908080601f016020809104026020016040519081016040528093929190818152602001838380828437600081840152601f19601f82011690508083019250505050505050919291929080359060200190640100000000811115610a2557600080fd5b820183602082011115610a3757600080fd5b80359060200191846001830284011164010000000083111715610a5957600080fd5b91908080601f016020809104026020016040519081016040528093929190818152602001838380828437600081840152601f19601f820116905080830192505050505050509192919290505050612989565b005b348015610ab957600080fd5b50610ae660048036036020811015610ad057600080fd5b8101908080359060200190929190505050612bea565b604051808381526020018281526020019250505060405180910390f35b348015610b0f57600080fd5b50610b3c60048036036020811015610b2657600080fd5b8101908080359060200190929190505050612c92565b604051808381526020018281526020019250505060405180910390f35b348015610b6557600080fd5b50610cb660048036036040811015610b7c57600080fd5b8101908080359060200190640100000000811115610b9957600080fd5b820183602082011115610bab57600080fd5b80359060200191846001830284011164010000000083111715610bcd57600080fd5b91908080601f016020809104026020016040519081016040528093929190818152602001838380828437600081840152601f19601f82011690508083019250505050505050919291929080359060200190640100000000811115610c3057600080fd5b820183602082011115610c4257600080fd5b80359060200191846001830284011164010000000083111715610c6457600080fd5b91908080601f016020809104026020016040519081016040528093929190818152602001838380828437600081840152601f19601f820116905080830192505050505050509192919290505050612d3a565b005b348015610cc457600080fd5b50610e2960048036036080811015610cdb57600080fd5b8101908080359060200190640100000000811115610cf857600080fd5b820183602082011115610d0a57600080fd5b80359060200191846001830284011164010000000083111715610d2c57600080fd5b91908080601f016020809104026020016040519081016040528093929190818152602001838380828437600081840152601f19601f82011690508083019250505050505050919291929080359060200190640100000000811115610d8f57600080fd5b820183602082011115610da157600080fd5b80359060200191846001830284011164010000000083111715610dc357600080fd5b91908080601f016020809104026020016040519081016040528093929190818152602001838380828437600081840152601f19601f8201169050808301925050505050505091929192908035906020019092919080359060200190929190505050612f3c565b005b348015610e3757600080fd5b50610f8860048036036040811015610e4e57600080fd5b8101908080359060200190640100000000811115610e6b57600080fd5b820183602082011115610e7d57600080fd5b80359060200191846001830284011164010000000083111715610e9f57600080fd5b91908080601f016020809104026020016040519081016040528093929190818152602001838380828437600081840152601f19601f82011690508083019250505050505050919291929080359060200190640100000000811115610f0257600080fd5b820183602082011115610f1457600080fd5b80359060200191846001830284011164010000000083111715610f3657600080fd5b91908080601f016020809104026020016040519081016040528093929190818152602001838380828437600081840152601f19601f8201169050808301925050505050505091929192905050506130c0565b005b348015610f9657600080fd5b506110e760048036036040811015610fad57600080fd5b8101908080359060200190640100000000811115610fca57600080fd5b820183602082011115610fdc57600080fd5b80359060200191846001830284011164010000000083111715610ffe57600080fd5b91908080601f016020809104026020016040519081016040528093929190818152602001838380828437600081840152601f19601f8201169050808301925050505050505091929192908035906020019064010000000081111561106157600080fd5b82018360208201111561107357600080fd5b8035906020019184600183028401116401000000008311171561109557600080fd5b91908080601f016020809104026020016040519081016040528093929190818152602001838380828437600081840152601f19601f8201169050808301925050505050505091929192905050506132c2565b005b61111f600480360360408110156110ff57600080fd5b81019080803590602001909291908035906020019092919050505061342a565b005b34801561112d57600080fd5b5061115a6004803603602081101561114457600080fd5b810190808035906020019092919050505061351e565b60405180806020018d8152602001806020018c81526020018b1515151581526020018a8152602001898152602001881515151581526020018773ffffffffffffffffffffffffffffffffffffffff1673ffffffffffffffffffffffffffffffffffffffff1681526020018673ffffffffffffffffffffffffffffffffffffffff1673ffffffffffffffffffffffffffffffffffffffff1681526020018581526020018415151515815260200183810383528f818151815260200191508051906020019080838360005b8381101561123e578082015181840152602081019050611223565b50505050905090810190601f16801561126b5780820380516001836020036101000a031916815260200191505b5083810382528d818151815260200191508051906020019080838360005b838110156112a4578082015181840152602081019050611289565b50505050905090810190601f1680156112d15780820380516001836020036101000a031916815260200191505b509e50505050505050505050505050505060405180910390f35b3480156112f757600080fd5b506113386004803603606081101561130e57600080fd5b81019080803590602001909291908035906020019092919080359060200190929190505050613715565b005b34801561134657600080fd5b506113896004803603602081101561135d57600080fd5b81019080803573ffffffffffffffffffffffffffffffffffffffff169060200190929190505050613868565b60405180806020018060200186815260200185815260200184151515158152602001838103835288818151815260200191508051906020019080838360005b838110156113e35780820151818401526020810190506113c8565b50505050905090810190601f1680156114105780820380516001836020036101000a031916815260200191505b50838103825287818151815260200191508051906020019080838360005b8381101561144957808201518184015260208101905061142e565b50505050905090810190601f1680156114765780820380516001836020036101000a031916815260200191505b5097505050505050505060405180910390f35b34801561149557600080fd5b5061167d600480360360608110156114ac57600080fd5b81019080803590602001906401000000008111156114c957600080fd5b8201836020820111156114db57600080fd5b803590602001918460018302840111640100000000831117156114fd57600080fd5b91908080601f016020809104026020016040519081016040528093929190818152602001838380828437600081840152601f19601f8201169050808301925050505050505091929192908035906020019064010000000081111561156057600080fd5b82018360208201111561157257600080fd5b8035906020019184600183028401116401000000008311171561159457600080fd5b91908080601f016020809104026020016040519081016040528093929190818152602001838380828437600081840152601f19601f820116905080830192505050505050509192919290803590602001906401000000008111156115f757600080fd5b82018360208201111561160957600080fd5b8035906020019184600183028401116401000000008311171561162b57600080fd5b91908080601f016020809104026020016040519081016040528093929190818152602001838380828437600081840152601f19601f8201169050808301925050505050505091929192905050506139db565b005b34801561168b57600080fd5b506116ce600480360360208110156116a257600080fd5b81019080803573ffffffffffffffffffffffffffffffffffffffff169060200190929190505050613b51565b6040518086815260200180602001806020018515151515815260200184151515158152602001838103835287818151815260200191508051906020019080838360005b8381101561172c578082015181840152602081019050611711565b50505050905090810190601f1680156117595780820380516001836020036101000a031916815260200191505b50838103825286818151815260200191508051906020019080838360005b83811015611792578082015181840152602081019050611777565b50505050905090810190601f1680156117bf5780820380516001836020036101000a031916815260200191505b5097505050505050505060405180910390f35b3480156117de57600080fd5b5061192f600480360360408110156117f557600080fd5b810190808035906020019064010000000081111561181257600080fd5b82018360208201111561182457600080fd5b8035906020019184600183028401116401000000008311171561184657600080fd5b91908080601f016020809104026020016040519081016040528093929190818152602001838380828437600081840152601f19601f820116905080830192505050505050509192919290803590602001906401000000008111156118a957600080fd5b8201836020820111156118bb57600080fd5b803590602001918460018302840111640100000000831117156118dd57600080fd5b91908080601f016020809104026020016040519081016040528093929190818152602001838380828437600081840152601f19601f820116905080830192505050505050509192919290505050613cd1565b005b34801561193d57600080fd5b5061197e6004803603606081101561195457600080fd5b81019080803590602001909291908035906020019092919080359060200190929190505050613e19565b005b34801561198c57600080fd5b506119cf600480360360208110156119a357600080fd5b81019080803573ffffffffffffffffffffffffffffffffffffffff169060200190929190505050613f6c565b60405180806020018060200186815260200185815260200184151515158152602001838103835288818151815260200191508051906020019080838360005b83811015611a29578082015181840152602081019050611a0e565b50505050905090810190601f168015611a565780820380516001836020036101000a031916815260200191505b50838103825287818151815260200191508051906020019080838360005b83811015611a8f578082015181840152602081019050611a74565b50505050905090810190601f168015611abc5780820380516001836020036101000a031916815260200191505b5097505050505050505060405180910390f35b348015611adb57600080fd5b50611b1c60048036036060811015611af257600080fd5b810190808035906020019092919080359060200190929190803590602001909291905050506140df565b005b348015611b2a57600080fd5b50611b5760048036036020811015611b4157600080fd5b8101908080359060200190929190505050614232565b005b348015611b6557600080fd5b50611b9260048036036020811015611b7c57600080fd5b81019080803590602001909291905050506142d2565b604051808381526020018281526020019250505060405180910390f35b348015611bbb57600080fd5b50611be860048036036020811015611bd257600080fd5b81019080803590602001909291905050506143ae565b005b611c2060048036036040811015611c0057600080fd5b81019080803590602001909291908035906020019092919050505061444e565b005b611c5860048036036040811015611c3857600080fd5b8101908080359060200190929190803590602001909291905050506145b0565b005b611c9060048036036040811015611c7057600080fd5b810190808035906020019092919080359060200190929190505050614712565b005b348015611c9e57600080fd5b50611def60048036036040811015611cb557600080fd5b8101908080359060200190640100000000811115611cd257600080fd5b820183602082011115611ce457600080fd5b80359060200191846001830284011164010000000083111715611d0657600080fd5b91908080601f016020809104026020016040519081016040528093929190818152602001838380828437600081840152601f19601f82011690508083019250505050505050919291929080359060200190640100000000811115611d6957600080fd5b820183602082011115611d7b57600080fd5b80359060200191846001830284011164010000000083111715611d9d57600080fd5b91908080601f016020809104026020016040519081016040528093929190818152602001838380828437600081840152601f19601f820116905080830192505050505050509192919290505050614874565b005b348015611dfd57600080fd5b50611e4060048036036020811015611e1457600080fd5b81019080803573ffffffffffffffffffffffffffffffffffffffff169060200190929190505050614a76565b60405180806020018060200186815260200185815260200184151515158152602001838103835288818151815260200191508051906020019080838360005b83811015611e9a578082015181840152602081019050611e7f565b50505050905090810190601f168015611ec75780820380516001836020036101000a031916815260200191505b50838103825287818151815260200191508051906020019080838360005b83811015611f00578082015181840152602081019050611ee5565b50505050905090810190601f168015611f2d5780820380516001836020036101000a031916815260200191505b5097505050505050505060405180910390f35b348015611f4c57600080fd5b50611f8d60048036036060811015611f6357600080fd5b81019080803590602001909291908035906020019092919080359060200190929190505050614be9565b005b348015611f9b57600080fd5b50611fde60048036036020811015611fb257600080fd5b81019080803573ffffffffffffffffffffffffffffffffffffffff169060200190929190505050614d3c565b60405180806020018060200186815260200185815260200184151515158152602001838103835288818151815260200191508051906020019080838360005b8381101561203857808201518184015260208101905061201d565b50505050905090810190601f1680156120655780820380516001836020036101000a031916815260200191505b50838103825287818151815260200191508051906020019080838360005b8381101561209e578082015181840152602081019050612083565b50505050905090810190601f1680156120cb5780820380516001836020036101000a031916815260200191505b5097505050505050505060405180910390f35b3480156120ea57600080fd5b506121176004803603602081101561210157600080fd5b8101908080359060200190929190505050614eaf565b005b3373ffffffffffffffffffffffffffffffffffffffff166007600083815260200190815260200160002060050160019054906101000a900473ffffffffffffffffffffffffffffffffffffffff1673ffffffffffffffffffffffffffffffffffffffff161461218757600080fd5b60006007600083815260200190815260200160002060050160006101000a81548160ff02191690831515021790555050565b6007602052806000526040600020600091509050806000018054600181600116156101000203166002900480601f0160208091040260200160405190810160405280929190818152602001828054600181600116156101000203166002900480156122655780601f1061223a57610100808354040283529160200191612265565b820191906000526020600020905b81548152906001019060200180831161224857829003601f168201915b505050505090806001018054600181600116156101000203166002900480601f0160208091040260200160405190810160405280929190818152602001828054600181600116156101000203166002900480156123035780601f106122d857610100808354040283529160200191612303565b820191906000526020600020905b8154815290600101906020018083116122e657829003601f168201915b5050505050908060020160009054906101000a900460ff16908060030154908060040154908060050160009054906101000a900460ff16908060050160019054906101000a900473ffffffffffffffffffffffffffffffffffffffff16908060060160009054906101000a900473ffffffffffffffffffffffffffffffffffffffff16908060070154908060080160009054906101000a900460ff1690508a565b600d602052806000526040600020600091509050806000018054600181600116156101000203166002900480601f0160208091040260200160405190810160405280929190818152602001828054600181600116156101000203166002900480156124505780601f1061242557610100808354040283529160200191612450565b820191906000526020600020905b81548152906001019060200180831161243357829003601f168201915b505050505090806001018054600181600116156101000203166002900480601f0160208091040260200160405190810160405280929190818152602001828054600181600116156101000203166002900480156124ee5780601f106124c3576101008083540402835291602001916124ee565b820191906000526020600020905b8154815290600101906020018083116124d157829003601f168201915b5050505050908060020154908060030154908060040154908060050160009054906101000a900473ffffffffffffffffffffffffffffffffffffffff16908060060160009054906101000a900473ffffffffffffffffffffffffffffffffffffffff16908060060160149054906101000a900460ff16908060070154908060080154908060090160009054906101000a900460ff16908060090160019054906101000a900460ff1690508c565b6004602052806000526040600020600091509050806000018054600181600116156101000203166002900480601f0160208091040260200160405190810160405280929190818152602001828054600181600116156101000203166002900480156126475780601f1061261c57610100808354040283529160200191612647565b820191906000526020600020905b81548152906001019060200180831161262a57829003601f168201915b505050505090806001018054600181600116156101000203166002900480601f0160208091040260200160405190810160405280929190818152602001828054600181600116156101000203166002900480156126e55780601f106126ba576101008083540402835291602001916126e5565b820191906000526020600020905b8154815290600101906020018083116126c857829003601f168201915b505050505090806002018054600181600116156101000203166002900480601f0160208091040260200160405190810160405280929190818152602001828054600181600116156101000203166002900480156127835780601f1061275857610100808354040283529160200191612783565b820191906000526020600020905b81548152906001019060200180831161276657829003601f168201915b5050505050908060030154908060040160009054906101000a900473ffffffffffffffffffffffffffffffffffffffff16908060050160009054906101000a900473ffffffffffffffffffffffffffffffffffffffff16908060050160149054906101000a900460ff16908060060154908060070160009054906101000a900460ff16908060070160019054906101000a900460ff1690806008015490508b565b600860008154809291906001019190505550836009600060085481526020019081526020016000206000019080519060200190612862929190614f4f565b5082600960006008548152602001908152602001600020600201908051906020019061288f929190614f4f565b50816009600060085481526020019081526020016000206001018190555080600960006008548152602001908152602001600020600301819055503360096000600854815260200190815260200160002060070160016101000a81548173ffffffffffffffffffffffffffffffffffffffff021916908373ffffffffffffffffffffffffffffffffffffffff160217905550600060096000600854815260200190815260200160002060040160006101000a81548160ff021916908315150217905550600160096000600854815260200190815260200160002060070160006101000a81548160ff02191690831515021790555050505050565b600080905060008090505b600154811015612aca5760011515600260003373ffffffffffffffffffffffffffffffffffffffff1673ffffffffffffffffffffffffffffffffffffffff16815260200190815260200160002060030160009054906101000a900460ff161515148015612a54575060001515600260003373ffffffffffffffffffffffffffffffffffffffff1673ffffffffffffffffffffffffffffffffffffffff16815260200190815260200160002060030160019054906101000a900460ff161515145b15612abd57600191506001600260003373ffffffffffffffffffffffffffffffffffffffff1673ffffffffffffffffffffffffffffffffffffffff16815260200190815260200160002060030160016101000a81548160ff021916908315150217905550612aca565b8080600101915050612994565b506001151581151514612adc57600080fd5b82600560003373ffffffffffffffffffffffffffffffffffffffff1673ffffffffffffffffffffffffffffffffffffffff1681526020019081526020016000206001019080519060200190612b32929190614f4f565b5081600560003373ffffffffffffffffffffffffffffffffffffffff1673ffffffffffffffffffffffffffffffffffffffff1681526020019081526020016000206000019080519060200190612b89929190614f4f565b506001600560003373ffffffffffffffffffffffffffffffffffffffff1673ffffffffffffffffffffffffffffffffffffffff16815260200190815260200160002060040160006101000a81548160ff021916908315150217905550505050565b6000803373ffffffffffffffffffffffffffffffffffffffff166009600085815260200190815260200160002060070160019054906101000a900473ffffffffffffffffffffffffffffffffffffffff1673ffffffffffffffffffffffffffffffffffffffff1614612c5b57600080fd5b6009600084815260200190815260200160002060050154600960008581526020019081526020016000206009015491509150915091565b6000803373ffffffffffffffffffffffffffffffffffffffff166007600085815260200190815260200160002060050160019054906101000a900473ffffffffffffffffffffffffffffffffffffffff1673ffffffffffffffffffffffffffffffffffffffff1614612d0357600080fd5b6007600084815260200190815260200160002060030154600760008581526020019081526020016000206007015491509150915091565b600080905060008090505b600154811015612e1c5760011515600260003373ffffffffffffffffffffffffffffffffffffffff1673ffffffffffffffffffffffffffffffffffffffff16815260200190815260200160002060030160009054906101000a900460ff1615151415612e0f57600191506001600260003373ffffffffffffffffffffffffffffffffffffffff1673ffffffffffffffffffffffffffffffffffffffff16815260200190815260200160002060030160016101000a81548160ff021916908315150217905550612e1c565b8080600101915050612d45565b506001151581151514612e2e57600080fd5b82600a60003373ffffffffffffffffffffffffffffffffffffffff1673ffffffffffffffffffffffffffffffffffffffff1681526020019081526020016000206001019080519060200190612e84929190614f4f565b5081600a60003373ffffffffffffffffffffffffffffffffffffffff1673ffffffffffffffffffffffffffffffffffffffff1681526020019081526020016000206000019080519060200190612edb929190614f4f565b506001600a60003373ffffffffffffffffffffffffffffffffffffffff1673ffffffffffffffffffffffffffffffffffffffff16815260200190815260200160002060040160006101000a81548160ff021916908315150217905550505050565b600c6000815480929190600101919050555083600d6000600c5481526020019081526020016000206000019080519060200190612f7a929190614f4f565b5082600d6000600c5481526020019081526020016000206001019080519060200190612fa7929190614f4f565b5081600d6000600c5481526020019081526020016000206002018190555080600d6000600c5481526020019081526020016000206003018190555033600d6000600c54815260200190815260200160002060050160006101000a81548173ffffffffffffffffffffffffffffffffffffffff021916908373ffffffffffffffffffffffffffffffffffffffff1602179055506000600d6000600c54815260200190815260200160002060060160146101000a81548160ff0219169083151502179055506001600d6000600c54815260200190815260200160002060090160016101000a81548160ff021916908315150217905550600c54600d6000600c5481526020019081526020016000206004018190555050505050565b600080905060008090505b6001548110156131a25760011515600260003373ffffffffffffffffffffffffffffffffffffffff1673ffffffffffffffffffffffffffffffffffffffff16815260200190815260200160002060030160009054906101000a900460ff161515141561319557600191506001600260003373ffffffffffffffffffffffffffffffffffffffff1673ffffffffffffffffffffffffffffffffffffffff16815260200190815260200160002060030160016101000a81548160ff0219169083151502179055506131a2565b80806001019150506130cb565b5060011515811515146131b457600080fd5b82600e60003373ffffffffffffffffffffffffffffffffffffffff1673ffffffffffffffffffffffffffffffffffffffff168152602001908152602001600020600101908051906020019061320a929190614f4f565b5081600e60003373ffffffffffffffffffffffffffffffffffffffff1673ffffffffffffffffffffffffffffffffffffffff1681526020019081526020016000206000019080519060200190613261929190614f4f565b506001600e60003373ffffffffffffffffffffffffffffffffffffffff1673ffffffffffffffffffffffffffffffffffffffff16815260200190815260200160002060040160006101000a81548160ff021916908315150217905550505050565b60016000815480929190600101919050555081600260003373ffffffffffffffffffffffffffffffffffffffff1673ffffffffffffffffffffffffffffffffffffffff168152602001908152602001600020600101908051906020019061332a929190614f4f565b5080600260003373ffffffffffffffffffffffffffffffffffffffff1673ffffffffffffffffffffffffffffffffffffffff1681526020019081526020016000206002019080519060200190613381929190614f4f565b506001600260003373ffffffffffffffffffffffffffffffffffffffff1673ffffffffffffffffffffffffffffffffffffffff16815260200190815260200160002060030160006101000a81548160ff021916908315150217905550600154600260003373ffffffffffffffffffffffffffffffffffffffff1673ffffffffffffffffffffffffffffffffffffffff168152602001908152602001600020600001819055505050565b3460046000848152602001908152602001600020600801541461344c57600080fd5b8060046000848152602001908152602001600020600601541461346e57600080fd5b6004600083815260200190815260200160002060050160009054906101000a900473ffffffffffffffffffffffffffffffffffffffff1673ffffffffffffffffffffffffffffffffffffffff166108fc349081150290604051600060405180830381858888f193505050501580156134ea573d6000803e3d6000fd5b5060016004600084815260200190815260200160002060070160006101000a81548160ff0219169083151502179055505050565b6009602052806000526040600020600091509050806000018054600181600116156101000203166002900480601f0160208091040260200160405190810160405280929190818152602001828054600181600116156101000203166002900480156135ca5780601f1061359f576101008083540402835291602001916135ca565b820191906000526020600020905b8154815290600101906020018083116135ad57829003601f168201915b505050505090806001015490806002018054600181600116156101000203166002900480601f01602080910402602001604051908101604052809291908181526020018280546001816001161561010002031660029004801561366e5780601f106136435761010080835404028352916020019161366e565b820191906000526020600020905b81548152906001019060200180831161365157829003601f168201915b5050505050908060030154908060040160009054906101000a900460ff16908060050154908060060154908060070160009054906101000a900460ff16908060070160019054906101000a900473ffffffffffffffffffffffffffffffffffffffff16908060080160009054906101000a900473ffffffffffffffffffffffffffffffffffffffff169080600901549080600a0160009054906101000a900460ff1690508c565b60011515600560003373ffffffffffffffffffffffffffffffffffffffff1673ffffffffffffffffffffffffffffffffffffffff16815260200190815260200160002060040160009054906101000a900460ff1615151461377557600080fd5b600115156004600085815260200190815260200160002060070160019054906101000a900460ff161515146137a957600080fd5b336004600085815260200190815260200160002060050160006101000a81548173ffffffffffffffffffffffffffffffffffffffff021916908373ffffffffffffffffffffffffffffffffffffffff16021790555081600460008581526020019081526020016000206006018190555080600460008581526020019081526020016000206008018190555060016004600085815260200190815260200160002060050160146101000a81548160ff021916908315150217905550505050565b6005602052806000526040600020600091509050806000018054600181600116156101000203166002900480601f0160208091040260200160405190810160405280929190818152602001828054600181600116156101000203166002900480156139145780601f106138e957610100808354040283529160200191613914565b820191906000526020600020905b8154815290600101906020018083116138f757829003601f168201915b505050505090806001018054600181600116156101000203166002900480601f0160208091040260200160405190810160405280929190818152602001828054600181600116156101000203166002900480156139b25780601f10613987576101008083540402835291602001916139b2565b820191906000526020600020905b81548152906001019060200180831161399557829003601f168201915b5050505050908060020154908060030154908060040160009054906101000a900460ff16905085565b6003600081548092919060010191905055503360046000600354815260200190815260200160002060040160006101000a81548173ffffffffffffffffffffffffffffffffffffffff021916908373ffffffffffffffffffffffffffffffffffffffff160217905550826004600060035481526020019081526020016000206000019080519060200190613a70929190614f4f565b50816004600060035481526020019081526020016000206001019080519060200190613a9d929190614f4f565b50806004600060035481526020019081526020016000206002019080519060200190613aca929190614f4f565b50600060046000600354815260200190815260200160002060050160146101000a81548160ff021916908315150217905550600160046000600354815260200190815260200160002060070160016101000a81548160ff02191690831515021790555060035460046000600354815260200190815260200160002060030181905550505050565b6002602052806000526040600020600091509050806000015490806001018054600181600116156101000203166002900480601f016020809104026020016040519081016040528092919081815260200182805460018160011615610100020316600290048015613c035780601f10613bd857610100808354040283529160200191613c03565b820191906000526020600020905b815481529060010190602001808311613be657829003601f168201915b505050505090806002018054600181600116156101000203166002900480601f016020809104026020016040519081016040528092919081815260200182805460018160011615610100020316600290048015613ca15780601f10613c7657610100808354040283529160200191613ca1565b820191906000526020600020905b815481529060010190602001808311613c8457829003601f168201915b5050505050908060030160009054906101000a900460ff16908060030160019054906101000a900460ff16905085565b600660008154809291906001019190505550816007600060065481526020019081526020016000206000019080519060200190613d0f929190614f4f565b50806007600060065481526020019081526020016000206001019080519060200190613d3c929190614f4f565b503360076000600654815260200190815260200160002060050160016101000a81548173ffffffffffffffffffffffffffffffffffffffff021916908373ffffffffffffffffffffffffffffffffffffffff160217905550600060076000600654815260200190815260200160002060020160006101000a81548160ff021916908315150217905550600160076000600654815260200190815260200160002060050160006101000a81548160ff021916908315150217905550600654600760006006548152602001908152602001600020600401819055505050565b60011515600b60003373ffffffffffffffffffffffffffffffffffffffff1673ffffffffffffffffffffffffffffffffffffffff16815260200190815260200160002060040160009054906101000a900460ff16151514613e7957600080fd5b600115156009600084815260200190815260200160002060070160009054906101000a900460ff16151514613ead57600080fd5b336009600084815260200190815260200160002060080160006101000a81548173ffffffffffffffffffffffffffffffffffffffff021916908373ffffffffffffffffffffffffffffffffffffffff16021790555082600960008481526020019081526020016000206005018190555080600960008481526020019081526020016000206009018190555060016009600084815260200190815260200160002060040160006101000a81548160ff021916908315150217905550505050565b600a602052806000526040600020600091509050806000018054600181600116156101000203166002900480601f0160208091040260200160405190810160405280929190818152602001828054600181600116156101000203166002900480156140185780601f10613fed57610100808354040283529160200191614018565b820191906000526020600020905b815481529060010190602001808311613ffb57829003601f168201915b505050505090806001018054600181600116156101000203166002900480601f0160208091040260200160405190810160405280929190818152602001828054600181600116156101000203166002900480156140b65780601f1061408b576101008083540402835291602001916140b6565b820191906000526020600020905b81548152906001019060200180831161409957829003601f168201915b5050505050908060020154908060030154908060040160009054906101000a900460ff16905085565b60011515600a60003373ffffffffffffffffffffffffffffffffffffffff1673ffffffffffffffffffffffffffffffffffffffff16815260200190815260200160002060040160009054906101000a900460ff1615151461413f57600080fd5b600115156007600084815260200190815260200160002060050160009054906101000a900460ff1615151461417357600080fd5b336007600084815260200190815260200160002060060160006101000a81548173ffffffffffffffffffffffffffffffffffffffff021916908373ffffffffffffffffffffffffffffffffffffffff16021790555082600760008481526020019081526020016000206003018190555080600760008481526020019081526020016000206007018190555060016007600084815260200190815260200160002060020160006101000a81548160ff021916908315150217905550505050565b3373ffffffffffffffffffffffffffffffffffffffff16600d600083815260200190815260200160002060050160009054906101000a900473ffffffffffffffffffffffffffffffffffffffff1673ffffffffffffffffffffffffffffffffffffffff16146142a057600080fd5b6000600d600083815260200190815260200160002060090160016101000a81548160ff02191690831515021790555050565b6000803373ffffffffffffffffffffffffffffffffffffffff166004600085815260200190815260200160002060040160009054906101000a900473ffffffffffffffffffffffffffffffffffffffff1673ffffffffffffffffffffffffffffffffffffffff161461434357600080fd5b600115156004600085815260200190815260200160002060070160009054906101000a900460ff1615151461437757600080fd5b6004600084815260200190815260200160002060060154600460008581526020019081526020016000206008015491509150915091565b3373ffffffffffffffffffffffffffffffffffffffff166004600083815260200190815260200160002060040160009054906101000a900473ffffffffffffffffffffffffffffffffffffffff1673ffffffffffffffffffffffffffffffffffffffff161461441c57600080fd5b60006004600083815260200190815260200160002060070160016101000a81548160ff02191690831515021790555050565b3373ffffffffffffffffffffffffffffffffffffffff166007600084815260200190815260200160002060050160019054906101000a900473ffffffffffffffffffffffffffffffffffffffff1673ffffffffffffffffffffffffffffffffffffffff16146144bc57600080fd5b806007600084815260200190815260200160002060030154146144de57600080fd5b3460076000848152602001908152602001600020600701541461450057600080fd5b6007600083815260200190815260200160002060060160009054906101000a900473ffffffffffffffffffffffffffffffffffffffff1673ffffffffffffffffffffffffffffffffffffffff166108fc349081150290604051600060405180830381858888f1935050505015801561457c573d6000803e3d6000fd5b5060016007600084815260200190815260200160002060080160006101000a81548160ff0219169083151502179055505050565b3373ffffffffffffffffffffffffffffffffffffffff166009600084815260200190815260200160002060070160019054906101000a900473ffffffffffffffffffffffffffffffffffffffff1673ffffffffffffffffffffffffffffffffffffffff161461461e57600080fd5b8060096000848152602001908152602001600020600501541461464057600080fd5b3460096000848152602001908152602001600020600901541461466257600080fd5b6009600083815260200190815260200160002060080160009054906101000a900473ffffffffffffffffffffffffffffffffffffffff1673ffffffffffffffffffffffffffffffffffffffff166108fc349081150290604051600060405180830381858888f193505050501580156146de573d6000803e3d6000fd5b50600160096000848152602001908152602001600020600a0160006101000a81548160ff0219169083151502179055505050565b3373ffffffffffffffffffffffffffffffffffffffff16600d600084815260200190815260200160002060050160009054906101000a900473ffffffffffffffffffffffffffffffffffffffff1673ffffffffffffffffffffffffffffffffffffffff161461478057600080fd5b80600d600084815260200190815260200160002060070154146147a257600080fd5b34600d600084815260200190815260200160002060080154146147c457600080fd5b600d600083815260200190815260200160002060060160009054906101000a900473ffffffffffffffffffffffffffffffffffffffff1673ffffffffffffffffffffffffffffffffffffffff166108fc349081150290604051600060405180830381858888f19350505050158015614840573d6000803e3d6000fd5b506001600d600084815260200190815260200160002060090160006101000a81548160ff0219169083151502179055505050565b600080905060008090505b6001548110156149565760011515600260003373ffffffffffffffffffffffffffffffffffffffff1673ffffffffffffffffffffffffffffffffffffffff16815260200190815260200160002060030160009054906101000a900460ff161515141561494957600191506001600260003373ffffffffffffffffffffffffffffffffffffffff1673ffffffffffffffffffffffffffffffffffffffff16815260200190815260200160002060030160016101000a81548160ff021916908315150217905550614956565b808060010191505061487f565b50600115158115151461496857600080fd5b82600b60003373ffffffffffffffffffffffffffffffffffffffff1673ffffffffffffffffffffffffffffffffffffffff16815260200190815260200160002060010190805190602001906149be929190614f4f565b5081600b60003373ffffffffffffffffffffffffffffffffffffffff1673ffffffffffffffffffffffffffffffffffffffff1681526020019081526020016000206000019080519060200190614a15929190614f4f565b506001600b60003373ffffffffffffffffffffffffffffffffffffffff1673ffffffffffffffffffffffffffffffffffffffff16815260200190815260200160002060040160006101000a81548160ff021916908315150217905550505050565b600b602052806000526040600020600091509050806000018054600181600116156101000203166002900480601f016020809104026020016040519081016040528092919081815260200182805460018160011615610100020316600290048015614b225780601f10614af757610100808354040283529160200191614b22565b820191906000526020600020905b815481529060010190602001808311614b0557829003601f168201915b505050505090806001018054600181600116156101000203166002900480601f016020809104026020016040519081016040528092919081815260200182805460018160011615610100020316600290048015614bc05780601f10614b9557610100808354040283529160200191614bc0565b820191906000526020600020905b815481529060010190602001808311614ba357829003601f168201915b5050505050908060020154908060030154908060040160009054906101000a900460ff16905085565b60011515600e60003373ffffffffffffffffffffffffffffffffffffffff1673ffffffffffffffffffffffffffffffffffffffff16815260200190815260200160002060040160009054906101000a900460ff16151514614c4957600080fd5b60011515600d600084815260200190815260200160002060090160019054906101000a900460ff16151514614c7d57600080fd5b6001600d600084815260200190815260200160002060060160146101000a81548160ff02191690831515021790555033600d600084815260200190815260200160002060060160006101000a81548173ffffffffffffffffffffffffffffffffffffffff021916908373ffffffffffffffffffffffffffffffffffffffff16021790555082600d60008481526020019081526020016000206007018190555080600d600084815260200190815260200160002060080181905550505050565b600e602052806000526040600020600091509050806000018054600181600116156101000203166002900480601f016020809104026020016040519081016040528092919081815260200182805460018160011615610100020316600290048015614de85780601f10614dbd57610100808354040283529160200191614de8565b820191906000526020600020905b815481529060010190602001808311614dcb57829003601f168201915b505050505090806001018054600181600116156101000203166002900480601f016020809104026020016040519081016040528092919081815260200182805460018160011615610100020316600290048015614e865780601f10614e5b57610100808354040283529160200191614e86565b820191906000526020600020905b815481529060010190602001808311614e6957829003601f168201915b5050505050908060020154908060030154908060040160009054906101000a900460ff16905085565b3373ffffffffffffffffffffffffffffffffffffffff166009600083815260200190815260200160002060070160019054906101000a900473ffffffffffffffffffffffffffffffffffffffff1673ffffffffffffffffffffffffffffffffffffffff1614614f1d57600080fd5b60006009600083815260200190815260200160002060070160006101000a81548160ff02191690831515021790555050565b828054600181600116156101000203166002900490600052602060002090601f016020900481019282601f10614f9057805160ff1916838001178555614fbe565b82800160010185558215614fbe579182015b82811115614fbd578251825591602001919060010190614fa2565b5b509050614fcb9190614fcf565b5090565b614ff191905b80821115614fed576000816000905550600101614fd5565b5090565b9056fea265627a7a723158200273fbd2c32cd0400400a8a60d899f4fbbde1d1ef1f880f5d514c99fad72e34164736f6c63430005100032",
  "source": "pragma solidity ^0.5.0;\n\ncontract Mall{\n    address owner;\n    uint numberOfUsers;\n    \n    constructor() public{\n        owner=msg.sender;\n        numberOfUsers=0;\n    }\n    //Storing Data\n    struct users{\n        uint id;\n        string password;\n        string field;\n        bool active;\n        bool registered;\n    }\n    \n    mapping (address => users) public credentials;\n    \n    uint noOfOrders=0;\n    \n    struct grocery{\n        string list;\n        string Address;\n        string date;\n        uint id;\n        address customer;\n        address payable partner;\n        bool status;\n        uint ref;\n        bool paid;\n        bool active;\n        uint price;\n    }\n    \n    mapping(uint => grocery) public groceries;\n    \n    struct grocers{\n        string name;\n        string licenseNo;\n        uint positiveFeedback;\n        uint negativeFeedback;\n        bool active;\n    }\n    \n    mapping(address => grocers) public grocersList;\n    \n    uint noOfVehicleInsurance=0;\n    \n    struct VehicleInsure{\n        string registrationNumber;\n        string registrationDate;\n        bool status;\n        uint referenceNumber;\n        uint id;\n        bool active;\n        address customer;\n        address payable partner;\n        uint price;\n        bool paid;\n    }\n    \n    mapping(uint => VehicleInsure) public VehicleInsurance;\n    \n    uint noOfHealthInsurance=0;\n    \n    struct HealthInsure{\n        string name;\n        uint age;\n        string history;\n        uint budget;\n        bool status;\n        uint referenceNumber;\n        uint id;\n        bool active;\n        address customer;\n        address payable partner;\n        uint price;\n        bool paid;    \n    }\n    \n    mapping(uint => HealthInsure) public healthInsurance;\n    \n    struct vehicleInsure{\n        string name;\n        string licenseNo;\n        uint positiveFeedback;\n        uint negativeFeedback;\n        bool active;\n    }\n    \n    mapping(address => vehicleInsure) public vehicleInsurers;\n\n    struct healthInsure{\n        string name;\n        string licenseNo;\n        uint positiveFeedback;\n        uint negativeFeedback;\n        bool active;\n    }\n    \n    mapping(address => healthInsure) public healthInsurers;\n    \n    uint noOfDeals=0;\n    \n    struct deal{\n        string likes;\n        string availability;\n        uint numberOfPeople;\n        uint budget;\n        uint id;\n        address customer;\n        address payable seller;\n        bool status;\n        uint referenceNumber;\n        uint price;\n        bool paid;\n        bool active;\n    }\n    \n    mapping(uint => deal) public deals;\n    \n    struct dealer{\n        string name;\n        string licenseNo;\n        uint positiveFeedback;\n        uint negativeFeedback;\n        bool active;\n    }\n    \n    mapping(address => dealer) public dealers;\n    \n    //Registration and Validation\n    function register(string memory password, string memory field) public {\n        numberOfUsers++;\n        credentials[msg.sender].password=password;\n        credentials[msg.sender].field=field;\n        credentials[msg.sender].active=true;\n        credentials[msg.sender].id=numberOfUsers;\n    }\n    \n    function registerGrocer(string memory licenseNo, string memory name) public {\n        bool flag=false;\n        for(uint i=0; i<numberOfUsers; i++){\n            if(credentials[msg.sender].active==true && credentials[msg.sender].registered==false){\n                //Need to check the above condition for initialization\n                flag=true;\n                credentials[msg.sender].registered=true;\n                break;\n            }\n        }\n        require(flag==true);\n        grocersList[msg.sender].licenseNo=licenseNo;\n        grocersList[msg.sender].name=name;\n        grocersList[msg.sender].active=true;\n    } \n    \n    function registerHealthInsurer(string memory licenseNo, string memory name) public {\n        bool flag=false;\n        for(uint i=0; i<numberOfUsers; i++){\n            if(credentials[msg.sender].active==true){\n                flag=true;\n                credentials[msg.sender].registered=true;\n                break;\n            }\n        }\n        require(flag==true);\n        healthInsurers[msg.sender].licenseNo=licenseNo;\n        healthInsurers[msg.sender].name=name;\n        healthInsurers[msg.sender].active=true;\n    }\n    \n    function registerVehicleInsurer(string memory licenseNo, string memory name) public {\n        bool flag=false;\n        for(uint i=0; i<numberOfUsers; i++){\n            if(credentials[msg.sender].active==true){\n                flag=true;\n                credentials[msg.sender].registered=true;\n                break;\n            }\n        }\n        require(flag==true);\n        vehicleInsurers[msg.sender].licenseNo=licenseNo;\n        vehicleInsurers[msg.sender].name=name;\n        vehicleInsurers[msg.sender].active=true;\n    }\n    \n    function companyRegister(string memory licenseNo, string memory name) public {\n        bool flag=false;\n        for(uint i=0; i<numberOfUsers; i++){\n            if(credentials[msg.sender].active==true){\n                flag=true;\n                credentials[msg.sender].registered=true;\n                break;\n            }\n        }\n        require(flag==true);\n        dealers[msg.sender].licenseNo=licenseNo;\n        dealers[msg.sender].name=name;\n        dealers[msg.sender].active=true;\n    }\n    \n    //Grocery\n    function orderGrocery(string memory list, string memory Address, string memory date) public {\n        noOfOrders++;\n        groceries[noOfOrders].customer=msg.sender;\n        groceries[noOfOrders].list=list;\n        groceries[noOfOrders].Address=Address;\n        groceries[noOfOrders].date=date;\n        groceries[noOfOrders].status=false;\n        groceries[noOfOrders].active=true;\n        groceries[noOfOrders].id=noOfOrders;\n        \n    }\n    \n    function packGrocery(uint id, uint referenceNumber, uint price) public{\n        require(grocersList[msg.sender].active==true);\n        require(groceries[id].active==true);\n        groceries[id].partner=msg.sender;\n        groceries[id].ref=referenceNumber;\n        groceries[id].price=price;\n        groceries[id].status=true;\n    }\n    \n    function payGrocer(uint id, uint referenceNumber) public payable{\n        require(groceries[id].price==msg.value);\n        require(groceries[id].ref==referenceNumber);\n        groceries[id].partner.transfer(msg.value);\n        groceries[id].paid=true;\n    }\n    \n    function viewGroceryRef(uint id) public view returns(uint,uint) {\n        require(groceries[id].customer==msg.sender);\n        require(groceries[id].paid==true);\n        return (groceries[id].ref,groceries[id].price);\n    }\n    \n    //VehicleInsurance\n    function requireVehicleInsurance(string memory registrationNumber, string memory registrationDate) public {\n        noOfVehicleInsurance++;\n        VehicleInsurance[noOfVehicleInsurance].registrationNumber=registrationNumber;\n        VehicleInsurance[noOfVehicleInsurance].registrationDate=registrationDate;\n        VehicleInsurance[noOfVehicleInsurance].customer=msg.sender;\n        VehicleInsurance[noOfVehicleInsurance].status=false;\n        VehicleInsurance[noOfVehicleInsurance].active=true;\n        VehicleInsurance[noOfVehicleInsurance].id=noOfVehicleInsurance;\n    }\n    \n    function insureVehicle(uint referenceNumber, uint id, uint price) public {\n        require(vehicleInsurers[msg.sender].active==true);\n        require(VehicleInsurance[id].active==true);\n        VehicleInsurance[id].partner=msg.sender;\n        VehicleInsurance[id].referenceNumber=referenceNumber;\n        VehicleInsurance[id].price=price;\n        VehicleInsurance[id].status=true;\n    }\n    \n    function payVehicleInsurace(uint id, uint referenceNumber) public payable{\n        require(VehicleInsurance[id].customer==msg.sender);\n        require(VehicleInsurance[id].referenceNumber==referenceNumber);\n        require(VehicleInsurance[id].price==msg.value);\n        VehicleInsurance[id].partner.transfer(msg.value);\n        VehicleInsurance[id].paid=true;\n    }\n    \n    function viewVehicleRef(uint id) public view returns(uint,uint) {\n        require(VehicleInsurance[id].customer==msg.sender);\n        return (VehicleInsurance[id].referenceNumber,VehicleInsurance[id].price);\n    }\n    \n    //healthInsurance\n    function requireHealthInsurance(string memory name, string memory history, uint age, uint budget) public {\n        noOfHealthInsurance++;\n        healthInsurance[noOfHealthInsurance].name=name;\n        healthInsurance[noOfHealthInsurance].history=history;\n        healthInsurance[noOfHealthInsurance].age=age;\n        healthInsurance[noOfHealthInsurance].budget=budget;\n        healthInsurance[noOfHealthInsurance].customer=msg.sender;\n        healthInsurance[noOfHealthInsurance].status=false;\n        healthInsurance[noOfHealthInsurance].active=true;\n    }\n    \n    function insureHealth(uint referenceNumber, uint id, uint price) public {\n        require(healthInsurers[msg.sender].active==true);\n        require(healthInsurance[id].active==true);\n        healthInsurance[id].partner=msg.sender;\n        healthInsurance[id].referenceNumber=referenceNumber;\n        healthInsurance[id].price=price;\n        healthInsurance[id].status=true;\n    }\n    \n    function payHealthInsurace(uint id, uint referenceNumber) public payable{\n        require(healthInsurance[id].customer==msg.sender);\n        require(healthInsurance[id].referenceNumber==referenceNumber);\n        require(healthInsurance[id].price==msg.value);\n        healthInsurance[id].partner.transfer(msg.value);\n        healthInsurance[id].paid=true;\n    }\n    \n    function viewHealthRef(uint id) public view returns(uint,uint) {\n        require(healthInsurance[id].customer==msg.sender);\n        return (healthInsurance[id].referenceNumber,healthInsurance[id].price);\n    }\n    \n    //Post deals\n    function postDeal(string memory likes, string memory availability, uint noOfPeople, uint budget) public {\n        noOfDeals++;\n        deals[noOfDeals].likes=likes;\n        deals[noOfDeals].availability=availability;\n        deals[noOfDeals].numberOfPeople=noOfPeople;\n        deals[noOfDeals].budget=budget;\n        deals[noOfDeals].customer=msg.sender;\n        deals[noOfDeals].status=false;\n        deals[noOfDeals].active=true;\n        deals[noOfDeals].id=noOfDeals;\n    }\n    \n    function offerDeal(uint referenceNumber, uint id, uint price ) public {\n        require(dealers[msg.sender].active==true);\n        require(deals[id].active==true);\n        deals[id].status=true;\n        deals[id].seller=msg.sender;\n        deals[id].referenceNumber=referenceNumber;\n        deals[id].price=price;\n    }\n    \n    function payDeal(uint id, uint referenceNumber) public payable{\n        require(deals[id].customer==msg.sender);\n        require(deals[id].referenceNumber==referenceNumber);\n        require(deals[id].price==msg.value);\n        deals[id].seller.transfer(msg.value);\n        deals[id].paid=true;\n    }\n    \n    function consentGrocery(uint id) public {\n        require(groceries[id].customer==msg.sender);\n        groceries[id].active=false;\n    }\n    \n    function consentVehicleInsurance(uint id) public{\n        require(VehicleInsurance[id].customer==msg.sender);\n        VehicleInsurance[id].active=false;\n    }\n    \n    function consenthealthInsurance(uint id) public{\n        require(healthInsurance[id].customer==msg.sender);\n        healthInsurance[id].active=false;\n    }\n    \n    function consentDeals(uint id) public {\n        require(deals[id].customer==msg.sender);\n        deals[id].active=false;    \n    }\n    \n}",
  "sourcePath": "/home/lmedury/unisys/UnisysProject/project/contracts/Mall.sol",
  "compiler": {
    "name": "solc",
    "version": "0.5.16+commit.9c3226ce.Emscripten.clang"
  },
  "schemaVersion": "3.0.21",
  "updatedAt": "2020-01-30T22:36:04.006Z",
  "networkType": "ethereum",
  "devdoc": {
    "methods": {}
  },
  "userdoc": {
    "methods": {}
  }
}